{
  "_format": "hh-sol-artifact-1",
  "contractName": "AquaToken",
  "sourceName": "contracts/AquaToken.sol",
  "abi": [
    {
      "inputs": [
        {
          "internalType": "address",
          "name": "aquaPrimary",
          "type": "address"
        },
        {
          "internalType": "address",
          "name": "aquaClaim",
          "type": "address"
        }
      ],
      "stateMutability": "nonpayable",
      "type": "constructor"
    },
    {
      "anonymous": false,
      "inputs": [
        {
          "indexed": true,
          "internalType": "address",
          "name": "owner",
          "type": "address"
        },
        {
          "indexed": true,
          "internalType": "address",
          "name": "spender",
          "type": "address"
        },
        {
          "indexed": false,
          "internalType": "uint256",
          "name": "value",
          "type": "uint256"
        }
      ],
      "name": "Approval",
      "type": "event"
    },
    {
      "anonymous": false,
      "inputs": [
        {
          "indexed": true,
          "internalType": "address",
          "name": "authorizer",
          "type": "address"
        },
        {
          "indexed": true,
          "internalType": "bytes32",
          "name": "nonce",
          "type": "bytes32"
        }
      ],
      "name": "AuthorizationUsed",
      "type": "event"
    },
    {
      "anonymous": false,
      "inputs": [
        {
          "indexed": true,
          "internalType": "address",
          "name": "from",
          "type": "address"
        },
        {
          "indexed": true,
          "internalType": "address",
          "name": "to",
          "type": "address"
        },
        {
          "indexed": false,
          "internalType": "uint256",
          "name": "value",
          "type": "uint256"
        }
      ],
      "name": "Transfer",
      "type": "event"
    },
    {
      "inputs": [],
      "name": "PERMIT_TYPEHASH",
      "outputs": [
        {
          "internalType": "bytes32",
          "name": "",
          "type": "bytes32"
        }
      ],
      "stateMutability": "view",
      "type": "function"
    },
    {
      "inputs": [],
      "name": "TRANSFER_WITH_AUTHORIZATION_TYPEHASH",
      "outputs": [
        {
          "internalType": "bytes32",
          "name": "",
          "type": "bytes32"
        }
      ],
      "stateMutability": "view",
      "type": "function"
    },
    {
      "inputs": [
        {
          "internalType": "address",
          "name": "",
          "type": "address"
        },
        {
          "internalType": "address",
          "name": "",
          "type": "address"
        }
      ],
      "name": "allowance",
      "outputs": [
        {
          "internalType": "uint256",
          "name": "",
          "type": "uint256"
        }
      ],
      "stateMutability": "view",
      "type": "function"
    },
    {
      "inputs": [
        {
          "internalType": "address",
          "name": "spender",
          "type": "address"
        },
        {
          "internalType": "uint256",
          "name": "value",
          "type": "uint256"
        }
      ],
      "name": "approve",
      "outputs": [
        {
          "internalType": "bool",
          "name": "",
          "type": "bool"
        }
      ],
      "stateMutability": "nonpayable",
      "type": "function"
    },
    {
      "inputs": [
        {
          "internalType": "address",
          "name": "",
          "type": "address"
        },
        {
          "internalType": "bytes32",
          "name": "",
          "type": "bytes32"
        }
      ],
      "name": "authorizationState",
      "outputs": [
        {
          "internalType": "bool",
          "name": "",
          "type": "bool"
        }
      ],
      "stateMutability": "view",
      "type": "function"
    },
    {
      "inputs": [
        {
          "internalType": "address",
          "name": "",
          "type": "address"
        }
      ],
      "name": "balanceOf",
      "outputs": [
        {
          "internalType": "uint256",
          "name": "",
          "type": "uint256"
        }
      ],
      "stateMutability": "view",
      "type": "function"
    },
    {
      "inputs": [
        {
          "internalType": "uint256",
          "name": "value",
          "type": "uint256"
        }
      ],
      "name": "burn",
      "outputs": [
        {
          "internalType": "bool",
          "name": "",
          "type": "bool"
        }
      ],
      "stateMutability": "nonpayable",
      "type": "function"
    },
    {
      "inputs": [
        {
          "internalType": "address",
          "name": "account",
          "type": "address"
        },
        {
          "internalType": "uint256",
          "name": "amount",
          "type": "uint256"
        }
      ],
      "name": "burnFrom",
      "outputs": [],
      "stateMutability": "nonpayable",
      "type": "function"
    },
    {
      "inputs": [],
      "name": "decimals",
      "outputs": [
        {
          "internalType": "uint8",
          "name": "",
          "type": "uint8"
        }
      ],
      "stateMutability": "view",
      "type": "function"
    },
    {
      "inputs": [],
      "name": "getChainId",
      "outputs": [
        {
          "internalType": "uint256",
          "name": "chainId",
          "type": "uint256"
        }
      ],
      "stateMutability": "view",
      "type": "function"
    },
    {
      "inputs": [],
      "name": "getDomainSeparator",
      "outputs": [
        {
          "internalType": "bytes32",
          "name": "",
          "type": "bytes32"
        }
      ],
      "stateMutability": "view",
      "type": "function"
    },
    {
      "inputs": [
        {
          "internalType": "address",
          "name": "to",
          "type": "address"
        },
        {
          "internalType": "uint256",
          "name": "value",
          "type": "uint256"
        }
      ],
      "name": "mint",
      "outputs": [
        {
          "internalType": "bool",
          "name": "",
          "type": "bool"
        }
      ],
      "stateMutability": "nonpayable",
      "type": "function"
    },
    {
      "inputs": [
        {
          "internalType": "address",
          "name": "",
          "type": "address"
        }
      ],
      "name": "minters",
      "outputs": [
        {
          "internalType": "bool",
          "name": "",
          "type": "bool"
        }
      ],
      "stateMutability": "view",
      "type": "function"
    },
    {
      "inputs": [],
      "name": "name",
      "outputs": [
        {
          "internalType": "string",
          "name": "",
          "type": "string"
        }
      ],
      "stateMutability": "view",
      "type": "function"
    },
    {
      "inputs": [
        {
          "internalType": "address",
          "name": "",
          "type": "address"
        }
      ],
      "name": "nonces",
      "outputs": [
        {
          "internalType": "uint256",
          "name": "",
          "type": "uint256"
        }
      ],
      "stateMutability": "view",
      "type": "function"
    },
    {
      "inputs": [
        {
          "internalType": "address",
          "name": "owner",
          "type": "address"
        },
        {
          "internalType": "address",
          "name": "spender",
          "type": "address"
        },
        {
          "internalType": "uint256",
          "name": "value",
          "type": "uint256"
        },
        {
          "internalType": "uint256",
          "name": "deadline",
          "type": "uint256"
        },
        {
          "internalType": "uint8",
          "name": "v",
          "type": "uint8"
        },
        {
          "internalType": "bytes32",
          "name": "r",
          "type": "bytes32"
        },
        {
          "internalType": "bytes32",
          "name": "s",
          "type": "bytes32"
        }
      ],
      "name": "permit",
      "outputs": [],
      "stateMutability": "nonpayable",
      "type": "function"
    },
    {
      "inputs": [],
      "name": "symbol",
      "outputs": [
        {
          "internalType": "string",
          "name": "",
          "type": "string"
        }
      ],
      "stateMutability": "view",
      "type": "function"
    },
    {
      "inputs": [],
      "name": "totalSupply",
      "outputs": [
        {
          "internalType": "uint256",
          "name": "",
          "type": "uint256"
        }
      ],
      "stateMutability": "view",
      "type": "function"
    },
    {
      "inputs": [
        {
          "internalType": "address",
          "name": "to",
          "type": "address"
        },
        {
          "internalType": "uint256",
          "name": "value",
          "type": "uint256"
        }
      ],
      "name": "transfer",
      "outputs": [
        {
          "internalType": "bool",
          "name": "",
          "type": "bool"
        }
      ],
      "stateMutability": "nonpayable",
      "type": "function"
    },
    {
      "inputs": [
        {
          "internalType": "address",
          "name": "from",
          "type": "address"
        },
        {
          "internalType": "address",
          "name": "to",
          "type": "address"
        },
        {
          "internalType": "uint256",
          "name": "value",
          "type": "uint256"
        }
      ],
      "name": "transferFrom",
      "outputs": [
        {
          "internalType": "bool",
          "name": "",
          "type": "bool"
        }
      ],
      "stateMutability": "nonpayable",
      "type": "function"
    },
    {
      "inputs": [
        {
          "internalType": "address",
          "name": "from",
          "type": "address"
        },
        {
          "internalType": "address",
          "name": "to",
          "type": "address"
        },
        {
          "internalType": "uint256",
          "name": "value",
          "type": "uint256"
        },
        {
          "internalType": "uint256",
          "name": "validAfter",
          "type": "uint256"
        },
        {
          "internalType": "uint256",
          "name": "validBefore",
          "type": "uint256"
        },
        {
          "internalType": "bytes32",
          "name": "nonce",
          "type": "bytes32"
        },
        {
          "internalType": "uint8",
          "name": "v",
          "type": "uint8"
        },
        {
          "internalType": "bytes32",
          "name": "r",
          "type": "bytes32"
        },
        {
          "internalType": "bytes32",
          "name": "s",
          "type": "bytes32"
        }
      ],
      "name": "transferWithAuthorization",
      "outputs": [],
      "stateMutability": "nonpayable",
      "type": "function"
    }
  ],
  "bytecode": "0x608060405234801561001057600080fd5b506040516111e73803806111e783398101604081905261002f9161008c565b6001600160a01b039182166000908152600160208190526040808320805460ff199081168417909155939094168252929020805490911690911790556100be565b80516001600160a01b038116811461008757600080fd5b919050565b6000806040838503121561009e578182fd5b6100a783610070565b91506100b560208401610070565b90509250929050565b61111a806100cd6000396000f3fe608060405234801561001057600080fd5b50600436106101375760003560e01c806379cc6790116100b8578063d505accf1161007c578063d505accf1461024b578063dd62ed3e1461025e578063e3ee160e14610271578063e94a010214610284578063ed24911d14610297578063f46eccc41461029f57610137565b806379cc6790146102005780637ecebe001461021557806395d89b4114610228578063a0cc6a6814610230578063a9059cbb1461023857610137565b8063313ce567116100ff578063313ce567146101aa5780633408e470146101bf57806340c10f19146101c757806342966c68146101da57806370a08231146101ed57610137565b806306fdde031461013c578063095ea7b31461015a57806318160ddd1461017a57806323b872dd1461018f57806330adf81f146101a2575b600080fd5b6101446102b2565b6040516101519190610e52565b60405180910390f35b61016d610168366004610d28565b6102d8565b6040516101519190610d84565b6101826102ef565b6040516101519190610d8f565b61016d61019d366004610c07565b6102f5565b610182610367565b6101b261038b565b6040516101519190611091565b610182610390565b61016d6101d5366004610d28565b610394565b61016d6101e8366004610d51565b6103db565b6101826101fb366004610bb4565b6103f0565b61021361020e366004610d28565b610402565b005b610182610223366004610bb4565b610469565b61014461047b565b61018261049b565b61016d610246366004610d28565b6104bf565b610213610259366004610cbf565b6104cc565b61018261026c366004610bd5565b6105b7565b61021361027f366004610c42565b6105d4565b61016d610292366004610d28565b610728565b610182610748565b61016d6102ad366004610bb4565b6107e5565b6040518060400160405280600a81526020016920b8bab0902a37b5b2b760b11b81525081565b60006102e53384846107fa565b5060015b92915050565b60005481565b6001600160a01b038316600090815260036020908152604080832033845290915281205460001981146103515761032c8184610862565b6001600160a01b03861660009081526003602090815260408083203384529091529020555b61035c858585610890565b506001949350505050565b7f6e71edae12b1b97f4d1f60370fef10105fa2faae0126114a169c64845d6126c981565b601281565b4690565b33600090815260016020819052604082205460ff161515146103d15760405162461bcd60e51b81526004016103c890610ff3565b60405180910390fd5b6102e58383610971565b60006103e733836109fe565b5060015b919050565b60026020526000908152604090205481565b6001600160a01b0382166000908152600360209081526040808320338452909152902054818110156104465760405162461bcd60e51b81526004016103c890610faf565b61045a833361045585856110b7565b6107fa565b61046483836109fe565b505050565b60046020526000908152604090205481565b604051806040016040528060048152602001634151554160e01b81525081565b7f7c7c6cdb67a18743f49ec6fa9b35f50d52ed05cbed4cc592e13b44501c1a226781565b60006102e5338484610890565b428410156104ec5760405162461bcd60e51b81526004016103c890610f41565b6001600160a01b038716600090815260046020908152604080832054905161053f927f6e71edae12b1b97f4d1f60370fef10105fa2faae0126114a169c64845d6126c9928c928c928c92918c9101610d98565b60408051601f1981840301815291815281516020928301206001600160a01b038b166000908152600490935291205490915061057c906001610a88565b6001600160a01b0389166000908152600460205260409020556105a28882868686610ab6565b6105ad8888886107fa565b5050505050505050565b600360209081526000928352604080842090915290825290205481565b8542116105f35760405162461bcd60e51b81526004016103c89061105a565b8442106106125760405162461bcd60e51b81526004016103c890610f41565b6001600160a01b038916600090815260056020908152604080832087845290915290205460ff16156106565760405162461bcd60e51b81526004016103c890610f78565b604051600090610696907f7c7c6cdb67a18743f49ec6fa9b35f50d52ed05cbed4cc592e13b44501c1a2267908c908c908c908c908c908c90602001610dcc565b6040516020818303038152906040528051906020012090506106bb8a82868686610ab6565b6001600160a01b038a166000818152600560209081526040808320898452909152808220805460ff19166001179055518792917f98de503528ee59b575ef0c0a2576a82497bfc029a5685b209e9ec333479b10a591a361071c8a8a8a610890565b50505050505050505050565b600560209081526000928352604080842090915290825290205460ff1681565b60007f8b73c3c69bb8fe3d512ecc4cf759cc79239f7b179b0ffacaa9a75d522b39400f7f345b72c36b14f1cee01efb8ac4b299dc7b8d873e28b4796034548a3d371a4d2f7fc89efdaa54c0f20c7adf612882df0950f5a951637e0307cdcb4c672f298b8bc66107b5610390565b306040516020016107ca959493929190610e08565b60405160208183030381529060405280519060200120905090565b60016020526000908152604090205460ff1681565b6001600160a01b0380841660008181526003602090815260408083209487168084529490915290819020849055517f8c5be1e5ebec7d5bd14f71427d1e84f3dd0314c0f7b2291e5b200ac8c7c3b92590610855908590610d8f565b60405180910390a3505050565b60008261086f83826110b7565b91508111156102e95760405162461bcd60e51b81526004016103c890610f15565b6001600160a01b03821630148015906108b157506001600160a01b03821615155b6108cd5760405162461bcd60e51b81526004016103c890610ea5565b6001600160a01b0383166000908152600260205260409020546108f09082610862565b6001600160a01b03808516600090815260026020526040808220939093559084168152205461091f9082610a88565b6001600160a01b0380841660008181526002602052604090819020939093559151908516907fddf252ad1be2c89b69c2b068fc378daa952ba7f163c4a11628f55a4df523b3ef90610855908590610d8f565b60005461097e9082610a88565b60009081556001600160a01b0383168152600260205260409020546109a39082610a88565b6001600160a01b0383166000818152600260205260408082209390935591519091907fddf252ad1be2c89b69c2b068fc378daa952ba7f163c4a11628f55a4df523b3ef906109f2908590610d8f565b60405180910390a35050565b6001600160a01b038216600090815260026020526040902054610a219082610862565b6001600160a01b03831660009081526002602052604081209190915554610a489082610862565b60009081556040516001600160a01b038416907fddf252ad1be2c89b69c2b068fc378daa952ba7f163c4a11628f55a4df523b3ef906109f2908590610d8f565b600082610a95838261109f565b91508110156102e95760405162461bcd60e51b81526004016103c890610eea565b6000610ac0610748565b85604051602001610ad2929190610d69565b604051602081830303815290604052805190602001209050600060018286868660405160008152602001604052604051610b0f9493929190610e34565b6020604051602081039080840390855afa158015610b31573d6000803e3d6000fd5b5050604051601f1901519150506001600160a01b03811615801590610b675750866001600160a01b0316816001600160a01b0316145b610b835760405162461bcd60e51b81526004016103c890611023565b50505050505050565b80356001600160a01b03811681146103eb57600080fd5b803560ff811681146103eb57600080fd5b600060208284031215610bc5578081fd5b610bce82610b8c565b9392505050565b60008060408385031215610be7578081fd5b610bf083610b8c565b9150610bfe60208401610b8c565b90509250929050565b600080600060608486031215610c1b578081fd5b610c2484610b8c565b9250610c3260208501610b8c565b9150604084013590509250925092565b60008060008060008060008060006101208a8c031215610c60578485fd5b610c698a610b8c565b9850610c7760208b01610b8c565b975060408a0135965060608a0135955060808a0135945060a08a01359350610ca160c08b01610ba3565b925060e08a013591506101008a013590509295985092959850929598565b600080600080600080600060e0888a031215610cd9578283fd5b610ce288610b8c565b9650610cf060208901610b8c565b95506040880135945060608801359350610d0c60808901610ba3565b925060a0880135915060c0880135905092959891949750929550565b60008060408385031215610d3a578182fd5b610d4383610b8c565b946020939093013593505050565b600060208284031215610d62578081fd5b5035919050565b61190160f01b81526002810192909252602282015260420190565b901515815260200190565b90815260200190565b9586526001600160a01b0394851660208701529290931660408501526060840152608083019190915260a082015260c00190565b9687526001600160a01b0395861660208801529390941660408601526060850191909152608084015260a083019190915260c082015260e00190565b9485526020850193909352604084019190915260608301526001600160a01b0316608082015260a00190565b93845260ff9290921660208401526040830152606082015260800190565b6000602080835283518082850152825b81811015610e7e57858101830151858201604001528201610e62565b81811115610e8f5783604083870101525b50601f01601f1916929092016040019392505050565b60208082526025908201527f41717561546f6b656e3a3a2052454345495645525f49535f544f4b454e5f4f526040820152645f5a45524f60d81b606082015260800190565b6020808252601190820152704d4154483a4144445f4f564552464c4f5760781b604082015260600190565b6020808252601290820152714d4154483a5355425f554e444552464c4f5760701b604082015260600190565b60208082526018908201527f41717561546f6b656e3a3a20415554485f455850495245440000000000000000604082015260600190565b6020808252601d908201527f41717561546f6b656e3a3a20415554485f414c52454144595f55534544000000604082015260600190565b60208082526024908201527f45524332303a206275726e20616d6f756e74206578636565647320616c6c6f77604082015263616e636560e01b606082015260800190565b60208082526016908201527520b8bab0aa37b5b2b71d1d102727aa2fa6a4a72a22a960511b604082015260600190565b6020808252601d908201527f41717561546f6b656e3a3a20494e56414c49445f5349474e4154555245000000604082015260600190565b6020808252601e908201527f41717561546f6b656e3a3a20415554485f4e4f545f5945545f56414c49440000604082015260600190565b60ff91909116815260200190565b600082198211156110b2576110b26110ce565b500190565b6000828210156110c9576110c96110ce565b500390565b634e487b7160e01b600052601160045260246000fdfea2646970667358221220cc0c7fcc683f26ed36dda46144061fc94da81671c29f415d9b46a41fe1be259764736f6c63430008000033",
  "linkReferences": {},
  "deployedLinkReferences": {}
}